{
  "_format": "hh-sol-artifact-1",
  "contractName": "Comments",
  "sourceName": "contracts/Comments.sol",
  "abi": [
    {
      "anonymous": false,
      "inputs": [
        {
          "components": [
            {
              "internalType": "uint32",
              "name": "id",
              "type": "uint32"
            },
            {
              "internalType": "address",
              "name": "creator_address",
              "type": "address"
            },
            {
              "internalType": "uint256",
              "name": "created_at",
              "type": "uint256"
            },
            {
              "internalType": "string",
              "name": "topic",
              "type": "string"
            },
            {
              "internalType": "string",
              "name": "message",
              "type": "string"
            }
          ],
          "indexed": false,
          "internalType": "struct Comments.Comment",
          "name": "comment",
          "type": "tuple"
        }
      ],
      "name": "CommentAdded",
      "type": "event"
    },
    {
      "inputs": [
        {
          "internalType": "string",
          "name": "topic",
          "type": "string"
        },
        {
          "internalType": "string",
          "name": "message",
          "type": "string"
        }
      ],
      "name": "addComment",
      "outputs": [],
      "stateMutability": "nonpayable",
      "type": "function"
    },
    {
      "inputs": [
        {
          "internalType": "string",
          "name": "topic",
          "type": "string"
        }
      ],
      "name": "getComments",
      "outputs": [
        {
          "components": [
            {
              "internalType": "uint32",
              "name": "id",
              "type": "uint32"
            },
            {
              "internalType": "address",
              "name": "creator_address",
              "type": "address"
            },
            {
              "internalType": "uint256",
              "name": "created_at",
              "type": "uint256"
            },
            {
              "internalType": "string",
              "name": "topic",
              "type": "string"
            },
            {
              "internalType": "string",
              "name": "message",
              "type": "string"
            }
          ],
          "internalType": "struct Comments.Comment[]",
          "name": "",
          "type": "tuple[]"
        }
      ],
      "stateMutability": "view",
      "type": "function"
    }
  ],
  "bytecode": "0x608060405234801561001057600080fd5b50610b4f806100206000396000f3fe608060405234801561001057600080fd5b50600436106100365760003560e01c806370c63fcc1461003b578063ae5ff9051461006b575b600080fd5b61005560048036038101906100509190610638565b610087565b6040516100629190610919565b60405180910390f35b6100856004803603810190610080919061067d565b6102b1565b005b60606000838360405161009b929190610900565b9081526020016040518091039020805480602002602001604051908101604052809291908181526020016000905b828210156102a557838290600052602060002090600402016040518060a00160405290816000820160009054906101000a900463ffffffff1663ffffffff1663ffffffff1681526020016000820160049054906101000a900473ffffffffffffffffffffffffffffffffffffffff1673ffffffffffffffffffffffffffffffffffffffff1673ffffffffffffffffffffffffffffffffffffffff1681526020016001820154815260200160028201805461018290610a4b565b80601f01602080910402602001604051908101604052809291908181526020018280546101ae90610a4b565b80156101fb5780601f106101d0576101008083540402835291602001916101fb565b820191906000526020600020905b8154815290600101906020018083116101de57829003601f168201915b5050505050815260200160038201805461021490610a4b565b80601f016020809104026020016040519081016040528092919081815260200182805461024090610a4b565b801561028d5780601f106102625761010080835404028352916020019161028d565b820191906000526020600020905b81548152906001019060200180831161027057829003601f168201915b505050505081525050815260200190600101906100c9565b50505050905092915050565b60006040518060a00160405280600187876040516102d0929190610900565b908152602001604051809103902060009054906101000a900463ffffffff1663ffffffff1681526020013373ffffffffffffffffffffffffffffffffffffffff16815260200142815260200186868080601f016020809104026020016040519081016040528093929190818152602001838380828437600081840152601f19601f82011690508083019250505050505050815260200184848080601f016020809104026020016040519081016040528093929190818152602001838380828437600081840152601f19601f820116905080830192505050505050508152509050600085856040516103c2929190610900565b908152602001604051809103902081908060018154018082558091505060019003906000526020600020906004020160009091909190915060008201518160000160006101000a81548163ffffffff021916908363ffffffff16021790555060208201518160000160046101000a81548173ffffffffffffffffffffffffffffffffffffffff021916908373ffffffffffffffffffffffffffffffffffffffff16021790555060408201518160010155606082015181600201908051906020019061048e92919061054b565b5060808201518160030190805190602001906104ab92919061054b565b505050600185856040516104c0929190610900565b9081526020016040518091039020600081819054906101000a900463ffffffff16809291906104ee90610a7d565b91906101000a81548163ffffffff021916908363ffffffff160217905550507fc1df031baaf4b9baa40d183b8adaf2c6d730a1002f414d573210b948913183b48160405161053c919061093b565b60405180910390a15050505050565b82805461055790610a4b565b90600052602060002090601f01602090048101928261057957600085556105c0565b82601f1061059257805160ff19168380011785556105c0565b828001600101855582156105c0579182015b828111156105bf5782518255916020019190600101906105a4565b5b5090506105cd91906105d1565b5090565b5b808211156105ea5760008160009055506001016105d2565b5090565b60008083601f84011261060057600080fd5b8235905067ffffffffffffffff81111561061957600080fd5b60208301915083600182028301111561063157600080fd5b9250929050565b6000806020838503121561064b57600080fd5b600083013567ffffffffffffffff81111561066557600080fd5b610671858286016105ee565b92509250509250929050565b6000806000806040858703121561069357600080fd5b600085013567ffffffffffffffff8111156106ad57600080fd5b6106b9878288016105ee565b9450945050602085013567ffffffffffffffff8111156106d857600080fd5b6106e4878288016105ee565b925092505092959194509250565b60006106fe83836107e8565b905092915050565b61070f816109bd565b82525050565b60006107208261096d565b61072a8185610990565b93508360208202850161073c8561095d565b8060005b85811015610778578484038952815161075985826106f2565b945061076483610983565b925060208a01995050600181019050610740565b50829750879550505050505092915050565b600061079683856109b2565b93506107a3838584610a09565b82840190509392505050565b60006107ba82610978565b6107c481856109a1565b93506107d4818560208601610a18565b6107dd81610b08565b840191505092915050565b600060a08301600083015161080060008601826108f1565b5060208301516108136020860182610706565b50604083015161082660408601826108e2565b506060830151848203606086015261083e82826107af565b9150506080830151848203608086015261085882826107af565b9150508091505092915050565b600060a08301600083015161087d60008601826108f1565b5060208301516108906020860182610706565b5060408301516108a360408601826108e2565b50606083015184820360608601526108bb82826107af565b915050608083015184820360808601526108d582826107af565b9150508091505092915050565b6108eb816109ef565b82525050565b6108fa816109f9565b82525050565b600061090d82848661078a565b91508190509392505050565b600060208201905081810360008301526109338184610715565b905092915050565b600060208201905081810360008301526109558184610865565b905092915050565b6000819050602082019050919050565b600081519050919050565b600081519050919050565b6000602082019050919050565b600082825260208201905092915050565b600082825260208201905092915050565b600081905092915050565b60006109c8826109cf565b9050919050565b600073ffffffffffffffffffffffffffffffffffffffff82169050919050565b6000819050919050565b600063ffffffff82169050919050565b82818337600083830152505050565b60005b83811015610a36578082015181840152602081019050610a1b565b83811115610a45576000848401525b50505050565b60006002820490506001821680610a6357607f821691505b60208210811415610a7757610a76610ad9565b5b50919050565b6000610a88826109f9565b915063ffffffff821415610a9f57610a9e610aaa565b5b600182019050919050565b7f4e487b7100000000000000000000000000000000000000000000000000000000600052601160045260246000fd5b7f4e487b7100000000000000000000000000000000000000000000000000000000600052602260045260246000fd5b6000601f19601f830116905091905056fea2646970667358221220afc646d8b4fe516c3bb2e199765df9129e3c77cc002817d897fd5139078f498064736f6c63430008040033",
  "linkReferences": {},
  "deployedLinkReferences": {}
}